:100BAF0006080008001E0000060E000C00000000E2
:080BBF0006140012001E0001E3
:10080300E4F51AF51BF51CF51DD2B67F05120BF4A2
:10081300C2B67F05120BF4D2B67F05120BF4C2B633
:100823007F0A120BF4E4F51DC3E51D940474809450
:100833008040030209CFE51D25E0FEE42400FFEE1E
:100843003440FE120C08E4F51AF51BE51D25E0FE05
:10085300E42400FFEE3440FEE51B2FFFE51A3EFEC5
:10086300120BC8EFF46003020B21051BE51B70029A
:10087300051AC3E51A940240D27F0A120BF4E4F579
:100883001AF51BAF1DEF600464017036E51D7D0092
:1008930025E0FCE42DFFEC3440FEE51B2FFFE51AB9
:1008A3003EFEC006C007ED251BFFE51A3CFE7403A0
:1008B3002FF58274003EF583E493FDD007D0061232
:1008C3000BDEAF1DEF64026005EF6403703EE51DB0
:1008D30025E0FEE42400FFEE3440FEE51B2FFFE598
:1008E3001A3EFEC006C007E51D54017F0025E0FE49
:1008F300EF251BFFE51A3EFE74032FF58274043EB9
:10090300F583E493FDD007D006120BDE051BE51B30
:100913007002051AC3E51A940250030208867F0A7F
:10092300120BF4E4F51AF51BAF1DEF6004640170BC
:100933003BE51D25E0FEE42400FFEE3440FEE51B0D
:100943002FFFE51A3EFE120BC8AD07E51D7F0025FC
:10095300E0FEEF251BFFE51A3EFE74032FF58274BC
:10096300003EF583E4936D6003020B21AF1DEF643A
:10097300026005EF6403703DE51D25E0FEE42400FD
:10098300FFEE3440FEE51B2FFFE51A3EFE120BC8B7
:10099300AD07E51D54017F0025E0FEEF251BFFE5B4
:1009A3001A3EFE74032FF58274043EF583E4936DBF
:1009B3006003020B21051BE51B7002051AC3E51A30
:1009C3009402500302092B051D02082B7F007E4869
:1009D300120C08E4F51AF51BE4251BFFE51A34484D
:1009E300FE120BC8EFF46003020B21051BE51B701D
:1009F30002051AC3E51A940240DE7F0A120BF4E4DF
:100A0300F51AF51BE51B25E02408F808E6FDE425A7
:100A13001CFFE43448FE120BDE051C051BE51B70AE
:100A230002051AC39403E51A940040D8E4F51AF5B5
:100A33001BE51B25E0240EF808E6FDE4251CFFE476
:100A43003448FE120BDE051C051BE51B7002051A5C
:100A5300C39403E51A940040D8E4F51AF51BE51B8B
:100A630025E02414F808E6FDE4251CFFE43448FEE1
:100A7300120BDE051C051BE51B7002051AC394034C
:100A8300E51A940040D87F0A120BF4E4F51CF51A1A
:100A9300F51BE4251CFFE43448FE120BC8E51B25B7
:100AA300E02408F808E66F7075051C051BE51B704C
:100AB30002051AC39403E51A940040D6E4F51AF527
:100AC3001BE4251CFFE43448FE120BC8E51B25E09C
:100AD300240EF808E66F7046051C051BE51B700223
:100AE300051AC39403E51A940040D6E4F51AF51BDE
:100AF300E4251CFFE43448FE120BC8E51B25E02463
:100B030014F808E6B50717051C051BE51B7002055D
:100B13001AC39403E51A940040D6D2B680FE80FE31
:100BF400AE071FEE600DE4FCFD0DED70010C4C60C2
:030C0400EF80F688
:010C070022CA
:0D0C1C00E4F5E7F5E5F5E675E380F5E42283
:100BC80075E78175E5018FE48EE375E64675E6B94C
:060BD80000AFE2020C1C5C
:100BDE0075E78175E5028FE48EE38DE275E6467565
:060BEE00E6B900020C1C38
:100C080075E78175E5038FE48EE375E64675E6B909
:040C180000020C1CAE
:1000030000000000000000000000000000000000ED
:10001300000000000000008080808010001020009D
:1000230040006040503008108888880000000000BD
:1000330000000000000000000000000000000000BD
:1000430000003048888808081C020181611E0000F6
:10005300000000000000000000000000000000009D
:10006300000000000000000000000000000000008D
:10007300000000000000000000000000000000007D
:10008300000000000000000000000000804020107D
:100093000804040202010100000000000000000047
:1000A3000000000000000000000000000101020247
:1000B300040408102040800000000000000000003D
:1000C3000000000000000101010101000000000028
:1000D300000000000000000000000000000000001D
:1000E300000000000000000000000000000000000D
:1000F30000000000000000000000000000000000FD
:100103002020A0301010904810AE626226BC7050C0
:100113000048000000000000000000000000000094
:10012300208000000000000000000004D0800000D8
:10013300000000000000000104186000000000003F
:100143000000000000A81000580E111824625190FE
:1001530088400000000000000000000000000000D4
:10016300000000000000000000000000000000008C
:10017300000000000000000000000000000000007C
:10018300010904060281700C06010302010100004B
:10019300000000000000100808088848201006012D
:1001A30000030C102010204080C040100600000106
:1001B30082808480120202620400800BA01008086F
:1001C30008080C1229255AC44938090404020100FD
:1001D300000000000000000000000000000000001C
:1001E300000000000000000000000000000000000C
:1001F30000000000000000000000000000000000FC
:100203000000000000070239E6100000000000C0F3
:10021300201010880860040201000000000202029E
:100223000101010181004000404000400040800086
:10023300000000000000011880601F800102F80028
:100243000000000000F803000000000000000000B0
:10025300000000000000000000000000000000009B
:10026300000000000000000000000000000000008B
:10027300000000000000000000000000000000007B
:1002830000000000000000000304081028100023F1
:1002930004481072D490959CA8D09098F000000068
:1002A3000000000304081010D0D040484442A1A02D
:1002B30020201050782824120906010F02038040E1
:1002C30020100804030000000000000000000000EC
:1002D300000000000000000000000000000000001B
:1002E300000000000000000000000000000000000B
:1002F30000000000000000000000000000000000FB
:100303000000000000000000000000000000001CCE
:1003130022C10100000000000000004041414242B0
:100323004242448484888890903100509102F800BE
:10033300814140A21C0000180402816018060100DC
:1003430000000000000000000000000000000000AA
:10035300000000000000000000000000000000009A
:10036300000000000000000000000000000000008A
:10037300000000000000000000000000000000007A
:10038300000000000000000000000000000000006A
:100393000006241804040000000000000000000010
:1003A30000000000000000300000050A1470000087
:1003B300000000073F7C0402010100000000000070
:1003C300000000000000000000000000000000002A
:1003D300000000000000000000000000000000001A
:1003E300000000000000000000000000000000000A
:1003F30000000000000000000000000000000000FA
:1004030000000000000000000000000000000000E9
:1004130000000000000000000000000000000000D9
:1004230000000000000000000000000000000000C9
:1004330000000000000000000000000000000000B9
:1004430000000000000000000000000000000000A9
:100453000000000000000000000000000000000099
:100463000000000000000000000000000000000089
:100473000000000000000000000000000000000079
:100483000000000000000000000000000000000069
:100493000000000000000000000000000000000059
:1004A3000000000000000000000000000000000049
:1004B3000000000000000000000000000000000039
:1004C30000000000000000000000000000000080A9
:1004D300C040203010180808040404040602020275
:1004E30002020202060404040C080818103020401B
:1004F300C0800000000000000000000000000000B9
:1005030000000000000000000000000000000000E8
:1005130000000000000000000000000000000000D8
:1005230000000000000000000000000000000000C8
:1005330000000000000000000000000000000000B8
:1005430000000000000000000000C0301C06030192
:100553000000800000000000000000000000000018
:100563000000000000008000000000000000000008
:10057300000103061870C000000000000000000026
:100583000000000000000000000000000000000068
:100593000000000000000000000000000000000058
:1005A3000000000000000000000000000000000048
:1005B3000000000000000000000000000000000038
:1005C3000000000000000000F80F00000000000021
:1005D300000003000000000060808080C0406000D5
:1005E3000000000000000301000000000000000004
:1005F30000000000000003FE0000000000000000F7
:1006030000000000000000000000000000000000E7
:1006130000000000000000000000000000000000D7
:1006230000000000000000000000000000000000C7
:1006330000000000000000000000000000000000B7
:100643000000000000000000073CC0800000000024
:100653000000000000000000000000000000000097
:100663000000000000000000000000000000000087
:100673000000804030180F0100000000000000005F
:100683000000000000000000000000000000000067
:100693000000000000000000000000000000000057
:1006A3000000000000000000000000000000000047
:1006B3000000000000000000000000000000000037
:1006C3000000000000000000000000010102060419
:1006D300040808D8780000C00000000000000000F3
:1006E3000080E000000000000000F0080C04040299
:1006F30003010000000000000000000000000000F3
:1007030000000000000000000000000000000000E6
:1007130000000000000000000000000000000000D6
:1007230000000000000000000000000000000000C6
:1007330000000000000000000000000000000000B6
:1007430000000000000000000000000000000000A6
:10075300000080C7786040CFD8600080C04070CC74
:10076300C643404020180E0000001F30C0000000A8
:100773000000000000000000000000000000000076
:100783000000000000000000000000000000000066
:100793000000000000000000000000000000000056
:1007A3000000000000000000000000000000000046
:1007B3000000000000000000000000000000000036
:1007C3000000000000000000000000000000000026
:1007D300000709101010000010101E19102020200F
:1007E300202020202010101018080C020100000007
:1007F30000000000000000000000000000000000F6
:03000000020B23CD
:0C0B2300787FE4F6D8FD75811D020B6A96
:100B2F00020803E493A3F8E493A34003F68001F2D1
:100B3F0008DFF48029E493A3F85407240CC8C333C7
:100B4F00C4540F4420C8834004F456800146F6DF96
:100B5F00E4800B0102040810204080900BAFE47E6C
:100B6F00019360BCA3FF543F30E509541FFEE4938B
:100B7F00A360010ECF54C025E060A840B8E493A352
:100B8F00FAE493A3F8E493A3C8C582C8CAC583CA7D
:100B9F00F0A3C8C582C8CAC583CADFE9DEE780BE35
:010BC700002D
:00000001FF
