:10168600E4F546F5471222431222A21222B2122292
:101696006CD2831219B7754D08754E00754F40759B
:1016A60050007B80E4FDFF121D9D7F147E001221F9
:1016B600CEE4FB7D017F5A121EB67B017D017F6C55
:1016C600121EB67F327E001221CE1220FAE4F546B3
:1016D600C3E546940374809480501DE42547FFE4D7
:1016E6003448FE122217E54625E02423F876000842
:1016F600A6070547054680D8E4F546C3E5469403A4
:1017060074809480501DE42547FFE43448FE12227D
:1017160017E54625E02429F8760008A607054705BB
:101726004680D8E4F546C3E5469403748094805019
:101736001DE42547FFE43448FE122217E54625E05E
:10174600242FF8760008A6070547054680D8120913
:101756006612103730020720CA0BD2CA800730CA79
:0D17660004C2CAD2831222D01222DC80E11C
:0B22E800EF1FAC0670011E4C70F622C8
:101C2C000E35000000000000000000000000000065
:101C3C000623000000000000062900000000000040
:101C4C00062F0000000000000122000143000145A6
:0D1C5C0003C102014400C101C100012100CB
:1022A200438901758C4CE4F58AD2A9D2AFD28C2233
:03000B000218F7E1
:1018F700C0E0C0F0C083C082C0D075D000C000C0B7
:0D19070001C002C003C004C005C006C00737
:10191400758C4C758A000521E5216414705DF521F0
:10192400E55C64546003121F5B30020C0522E5225F
:10193400643C7004F522054320020520010205449D
:10194400E543C39545400BC20275220075430075FB
:101954004400C3E544941E74809480401EE55C6496
:10196400546005E55CB44E05755D44800BE55C7020
:101974000A200104D201D20075440030800630816F
:101984000320820A754400300104C201D2003001F0
:0819940007300204C201D20079
:10199C00D007D006D005D004D003D002D001D0009F
:0B19AC00D0D0D082D083D0F0D0E03249
:0C22D000300108300005122291C20022EB
:0C22DC00200108300005122280C2002200
:091C6900C103C104C185011F0083
:1022B200438910758D4CE4F58BD2ABD2AFD28E220E
:03001B00021F0BB6
:061F0B00C0E0C0F0C0D0F0
:101F1100758D4C758B00051FE51F75F00584E5F087
:101F21007002B203E51F75F00A84E5F07002B20495
:101F3100E55D64456003300206A20392058004A2B8
:101F4100049205308003208202D205E51F641470DB
:031F510002F51F77
:071F5400D0D0D0F0D0E03244
:1021B4000000000000030003000600010004000604
:0A21C4000002000500000003000502
:0C1C7200015C00015D00015E01015F01EA
:101FA500E4F54AF54B20813E7FE87E031222E820C6
:101FB500813120811DAE4AAF4BE4FCFD7B407A9C0C
:101FC500F9F8D3121820400A054BE54B70E4054A91
:101FD50080E0C3E54B9420E54A944E40037F4C22B4
:081FE5007F53227F00227F00E0
:011FED0022D1
:101A6700E4FF121FA5EF6049300246C202E4F522E7
:101A7700F543754D08F54E754F44F5507B80FDFFD6
:101A8700121D9D7F147E001221CE7B027D037F16DF
:101A9700121EB67B037D037F26121EB67B047D03D1
:101AA7007F36121EB67F327E001221CE1220FAE454
:101AB700FFEF6008200105300002E4FFE55CFD7CD4
:101AC700007014EF7002F55CBF5303755C4EEF6452
:101AD7004C7035755C5422ED4C6016E55D7012EF65
:101AE7007002F55DBF5303755D45EF644C70198057
:101AF70014E55DB44512EF7003755D45BF5303E40C
:081B0700F55DBF4C03755D4460
:011B0F0022B3
:10216800E5425403700EAE41AF42FC7D641217CBBA
:10217800ED4C700FAE41AF427C017D901217CBED54
:0B2188004C7004D2068002C206A206C2
:012193002229
:101B1000AE41AF427C007D641217CBAC06AD07AE80
:101B200041E5427802CEC313CE13D8F9C39DFBEE34
:101B30009CFAAE41AF427C017D901217CBEF2BFF98
:101B4000EE3AAB07FA1221685012E53E9402E53DE9
:101B500094005008754A00754B058006754A00755B
:101B60004B06E53E25E0FFE53D33FE74B42FF582DC
:101B700074213EF5837401932542FFE4933541FEC1
:101B8000E53C2FCFE53B3ECF2BCF3AFEE54B2FFF79
:0F1B9000E54A3EFE7C007D071217CB8C3F8D404F
:011B9F002223
:10103700121A67E55C644E6003021372E55E700680
:10104700755F01755E01E55D703C20821C7FE87E5F
:10105700031222E820820B055FE55F640A700375BF
:101067005F017F207E4E1222E820801A7FE87E03F0
:101077001222E8208009155FE55F7003755F097F1D
:10108700207E4E1222E8E55D644560030212DD30E2
:10109700820302119E7FE87E031222E83082030258
:1010A7001197E55F14B4090040030211979010C22D
:1010B70075F003A4C58325F0C583730210DD021004
:1010C700F502110D02112102113502114902115DBC
:1010D7000211710211850524E524700205236418A5
:1010E70045236003021197F523F52402119705267E
:1010F700E52670020525643C45256003021197F536
:1011070025F5260211970528E528700205276402B0
:101117004527707CF527F5288076052AE52A700291
:101127000529641845297068F529F52A8062052C78
:10113700E52C7002052B643C452B7054F52BF52CE0
:10114700804E052EE52E7002052D6402452D704058
:10115700F52DF52E803A0530E5307002052F64181D
:10116700452F702CF52FF53080260532E5327002B9
:101177000531643C45317018F531F532801205347C
:10118700E53470020533640245337004F533F534F2
:101197007F207E4E1222E83080030212DD7FE87E38
:1011A700031222E83080030212D6E55F14B4090067
:1011B70040030212D69011CA75F003A4C58325F027
:1011C700C583730211E502120202121F02123C02CA
:1011D700125802127102128A0212A40212BEE524E8
:1011E700152470021523E524F47003E523F4600346
:1011F7000212D6F5237524170212D6E52615267096
:10120700021525E526F47003E525F460030212D6DE
:10121700F52575263B0212D6E528152870021527F5
:10122700E528F47003E527F460030212D6F5277565
:1012370028010212D6E52A152A70021529E52AF493
:101247007003E529F460030212D6F529752A178081
:101257007EE52C152C7002152BE52CF47003E52B7D
:10126700F4706CF52B752C3B8065E52E152E7002FE
:10127700152DE52EF47003E52DF47053F52D752E1D
:1012870001804CE53015307002152FE530B4FF3F73
:10129700E52FB4FF3A752F007530178032E5321508
:1012A7003270021531E532B4FF25E531B4FF207500
:1012B700310075323B8018E534153470021533E57B
:1012C70034B4FF0BE533B4FF067533007534017F83
:0F12D700207E4E1222E8E55D644460030213722C
:1012E600F548F549FF7E48122258E4F548C3E5481B
:1012F600940374809480501BE54825E02423F80865
:10130600E6FDE42549FFE43448FE12222D05490591
:101316004880DAE4F548C3E5489403748094805025
:101326001BE54825E02429F808E6FDE42549FFE405
:101336003448FE12222D0549054880DAE4F548C3F3
:10134600E548940374809480501BE54825E0242FDB
:10135600F808E6FDE42549FFE43448FE12222D058F
:0C13660049054880DAE4F55DF55CF55EB1
:10137200E55C64546003021685E55E7006755F01E4
:10138200755E01E55D703C20821C7FE87E031222BF
:10139200E820820B055FE55F64077003755F017FDC
:1013A200207E4E1222E820801A7FE87E031222E875
:1013B200208009155FE55F7003755F067F207E4E12
:1013C2001222E8E55D64456003021676308203026C
:1013D20015187FE87E031222E8308203021511E518
:1013E2005F24FE603414604A1470030214D4147033
:1013F200030214E81470030214FC240560030215AE
:101402000E0542E542700205416433454160030224
:10141200150EF541F54202150E053EE53E70020538
:101422003D640D453D600302150EF53D753E01021A
:10143200150E053CE53C7002053BE53E6401453D69
:101442006030E53E6403453D6028E53E6405453D68
:101452006020E53E6407453D6018E53E6408453D71
:101462006010E53E640A453D6008E53E640C453D7A
:10147200700DE53C6420453B7005F53B753C01E58C
:101482003E6404453D6018E53E6406453D6010E556
:101492003E6409453D6008E53E640B453D700DE53F
:1014A2003C641F453B7005F53B753C01E53E64021B
:1014B200453D70581221685053E53C641E453B700F
:1014C200028008E53C641D453B7041F53B753C01DB
:1014D200803A053AE53A7002053964184539702CAC
:1014E200F539F53A80260538E53870020537643C4F
:1014F20045377018F537F53880120536E536700233
:101502000535643C45357004F535F536121B107F00
:10151200207E4E1222E83080030216767FE87E0398
:101522001222E830800302166FE55F24FE60391450
:10153200604F14700302162014700302163A1470DE
:10154200030216542405600302166CE5421542702C
:10155200021541E542F47003E541F4600302166CA2
:10156200F54175423202166CE53E153E7002153D9C
:10157200E53E453D600302166CF53D753E0C0216D4
:101582006CE53C153C7002153BE53E6401453D604F
:1015920030E53E6403453D6028E53E6405453D6017
:1015A20020E53E6407453D6018E53E6408453D6020
:1015B20010E53E640A453D6008E53E640C453D7019
:1015C2000BE53C453B7005F53B753C1FE53E64046D
:1015D200453D6018E53E6406453D6010E53E640900
:1015E200453D6008E53E640B453D700BE53C453BDF
:1015F2007005F53B753C1EE53E6402453D706B127D
:1016020021685066E53C453B7007F53B753C1D8003
:1016120059E53C453B7053F53B753C1C804CE53A23
:10162200153A70021539E53AB4FF3FE539B4FF3A8D
:10163200753900753A178032E5381538700215375A
:10164200E538B4FF25E537B4FF2075370075383B20
:101652008018E536153670021535E536B4FF0BE510
:1016620035B4FF0675350075363B121B107F207EA0
:101672004E1222E8E55DB4440A121E5CE4F55DF503
:041682005CF55E2293
:1020350053554E004D4F4E005455450057454400ED
:1020450054485500465249005341540054696D6542
:102055003A004D6F6469667920416C61726D006F5D
:102065006E006F6666004D6F646966792054696D10
:02207500650004
:101C7E000116010E0820352039203D204120452037
:031C8E0049204D9D
:10096600E55C6003020B25E516640170061220FAA9
:10097600E4F5167BFF7A207951E4FDFF1220B97564
:100986004C02754D107B147A007D037F08121D29D9
:10099600754C02754D10AB42AA417D037F18121D9E
:1009A600297B2F7D037F28121CAD754C02754D10D7
:1009B600AB3EAA3D7D037F30121D297B2F7D037F31
:1009C60040121CAD754C02754D10AB3CAA3B7D0325
:1009D6007F48121D29E54025E02408F8E6FE08E6D2
:1009E600AA06F97BFF7D037F5F1220B9E528640123
:1009F60045276010E52E6401452D6008E534640145
:100A06004533700B7B057D067F62121EB680127B16
:100A1600207D067F62121CAD7B207D067F6A121C3C
:100A2600ADE53AB52424E539B5231FE538B5261AD0
:100A3600E537B52515D3E5369401E5359400500A1A
:100A4600E528640145277002D202E53AB52A24E575
:100A560039B5291FE538B52C1AE537B52B15D3E579
:100A6600369401E5359400500AE52E6401452D7053
:100A760002D202E53AB53024E539B52F1FE538B57F
:100A8600321AE537B53115D3E5369401E5359400CC
:100A9600500AE534640145337002D2027B3A7D0682
:100AA6007F18121CAD7B3A7D067F30121CAD3002DA
:100AB6003B2005387B207D067F08121CAD7B207D00
:100AC600067F10121CAD7B207D067F20121CAD7B9D
:100AD600207D067F28121CAD7B207D067F38121CE8
:100AE600AD7B207D067F40121CAD8033754C0275B0
:100AF6004D10AB3AAA397D067F08121D29754C02A6
:100B0600754D10AB38AA377D067F20121D29754C0E
:100B160002754D10AB36AA357D067F38121D29E5C4
:100B26005C644E6003020DF1E51670061220FA753C
:100B360016017BFF7A207957E4FD7F0F1220B9203A
:100B46000503020C1A754C02754D10AB24AA237DC1
:100B5600027F08121D297B3A7D027F18121CAD7593
:100B66004C02754D10AB26AA257D027F20121D2949
:100B7600E528640145277BFF70067A2079648004A6
:100B86007A2079677D027F5F1220B9754C02754D18
:100B960010AB2AAA297D047F08121D297B3A7D0401
:100BA6007F18121CAD754C02754D10AB2CAA2B7D0F
:100BB600047F20121D29E52E6401452D7BFF70065A
:100BC6007A20796480047A2079677D047F5F122019
:100BD600B9754C02754D10AB30AA2F7D067F0812F1
:100BE6001D297B3A7D067F18121CAD754C02754D8A
:100BF60010AB32AA317D067F20121D29E53464012F
:100C060045337BFF70077A207964020DEA7A2079F2
:100C160067020DEA7B3A7D027F18121CAD7B3A7D96
:100C2600047F18121CAD7B3A7D067F18121CADE5B9
:100C36005F640170147B207D027F08121CAD7B204F
:100C46007D027F10121CAD8011754C02754D10ABE4
:100C560024AA237D027F08121D29E55F6402701411
:100C66007B207D027F20121CAD7B207D027F281217
:100C76001CAD8011754C02754D10AB26AA257D0260
:100C86007F20121D29E55F6403701D7B207D027F96
:100C96005F121CAD7B207D027F67121CAD7B207D21
:100CA600027F6F121CAD801BE528640145277BFF80
:100CB60070067A20796480047A2079677D027F5FE6
:100CC6001220B9E55F640470147B207D047F08124E
:100CD6001CAD7B207D047F10121CAD8011754C026B
:100CE600754D10AB2AAA297D047F08121D29E55FE0
:100CF600640570147B207D047F20121CAD7B207D53
:100D0600047F28121CAD8011754C02754D10AB2C5A
:100D1600AA2B7D047F20121D29E55F6406701D7BCA
:100D2600207D047F5F121CAD7B207D047F67121C33
:100D3600AD7B207D047F6F121CAD801BE52E640108
:100D4600452D7BFF70067A20796480047A207967C6
:100D56007D047F5F1220B9E55F640770147B207DF8
:100D6600067F08121CAD7B207D067F10121CAD800D
:100D760011754C02754D10AB30AA2F7D067F0812F7
:100D86001D29E55F640870147B207D067F20121CF8
:100D9600AD7B207D067F28121CAD8011754C027537
:100DA6004D10AB32AA317D067F20121D29E55F6406
:100DB60009701D7B207D067F5F121CAD7B207D06A2
:100DC6007F67121CAD7B207D067F6F121CAD801BDA
:100DD600E534640145337BFF70067A20796480042C
:100DE6007A2079677D067F5F1220B9E55C645460DE
:100DF60003021036E51670061220FA7516017BFFFF
:100E06007A20796BE4FDFF1220B9E54025E024083D
:100E1600F8E6FE08E6AA06F97BFF7D037F5F12204F
:100E2600B9E528640145276010E52E6401452D606B
:100E360008E53464014533700B7B057D067F62123D
:100E46001EB680127B207D067F62121CAD7B207D44
:100E5600067F6A121CAD200503020EEF754C027563
:100E66004D107B147A007D037F08121D29754C02F4
:100E7600754D10AB42AA417D037F18121D297B2FA9
:100E86007D037F28121CAD754C02754D10AB3EAA32
:100E96003D7D037F30121D297B2F7D037F40121C71
:100EA600AD754C02754D10AB3CAA3B7D037F4812D5
:100EB6001D29754C02754D10AB3AAA397D067F087F
:100EC600121D297B3A7D067F18121CAD754C0275E2
:100ED6004D10AB38AA377D067F20121D297B3A7D3F
:100EE600067F30121CAD0210257B2F7D037F281252
:100EF6001CAD7B2F7D037F40121CAD7B3A7D067FA8
:100F060018121CAD7B3A7D067F30121CADE55F647E
:100F16000170267B207D037F08121CAD7B207D039C
:100F26007F10121CAD7B207D037F18121CAD7B2029
:100F36007D037F20121CAD8022754C02754D107BFF
:100F4600147A007D037F08121D29754C02754D1019
:100F5600AB42AA417D037F18121D29E55F6402702A
:100F6600147B207D037F30121CAD7B207D037F38F0
:100F7600121CAD8011754C02754D10AB3EAA3D7D1D
:100F8600037F30121D29E55F640370147B207D0307
:100F96007F48121CAD7B207D037F50121CAD801153
:100FA600754C02754D10AB3CAA3B7D037F48121D64
:100FB60029E55F640470147B207D067F08121CAD52
:100FC6007B207D067F10121CAD8011754C02754D7D
:100FD60010AB3AAA397D067F08121D29E55F640524
:100FE60070147B207D067F20121CAD7B207D067F42
:100FF60028121CAD8011754C02754D10AB38AA37FE
:101006007D067F20121D29E55F640670127B207D18
:10101600067F38121CAD7B207D067F40021CAD7515
:101026004C02754D10AB36AA357D067F38121D2948
:011036002297
:1021CE00EF4E60157D087C07ED1DAA0470011C4AB8
:0921DE0070F6EF1F70EA1E80E7A5
:0121E70022D5
:10207700F583E5822CF582E43583F583E493FF7DD0
:012087000157
:10208800ED6004D2938002C293C294E4FEEEC3943E
:1020980008748094805015C290EF30E704D2918084
:1020A80002C291D290EF25E0FF0E80E1D294D29344
:0120B8002205
:10219400AC07ED24B0FFE4FD122088EC54F0C454E5
:1021A4000F4410FF122088EC540F4401FF022088D2
:10228000E4FD7F8D1220887F141220887FAF02200A
:0122900088C5
:10229100E4FD7F8D1220887F101220887FAE0220FE
:0122A10088B4
:1020FA00E4FCECC3940874809480502CEC24B0FF68
:10210A00E4FD122088E4FF1220887F10122088E460
:10211A00FBEBC3948074809480500A7D01E4FF1223
:08212A0020880B80EC0C80CA38
:01213200228A
:061CAD00AA07A905AF0320
:101CB300E4FCEF24E0FBEAD3947F74809480400437
:101CC300E4FA0909AF02AD01122194E4FCECC394D8
:101CD3000874809480501D75F010EBA42CF582E4F9
:101CE30035F0F583E5822456F582E583340212202C
:101CF300810C80D9AF02E904FD122194E4FCECC30A
:101D0300940874809480501D75F010EBA42CF58218
:101D1300E435F0F583E582245EF582E5833402122F
:051D230020810C80D9B5
:011D28002298
:0421E8008F51A90565
:1021EC007F017E00AD0119ED6009AD517C00121725
:0321FC00B980F1B6
:0121FF0022BD
:081D29008F488D498A4A8B4B5B
:101D3100E4F550F54EE54EC3954C505FC3E54C9527
:101D41004E14FD7F0A1221E8AC4AAD4BCFCDCFCE68
:101D5100CCCE1217CB7C007D0A1217CB8D4FE550EC
:101D61007020E54C14FFE54EC39F5016E54F700FF0
:101D7100E54DC313854EF0A42548FF7B20801375E4
:101D81005001E54DC313854EF0A42548FFE54F24CE
:0B1D910030FBAD49121CAD054E809ADE
:011D9C002224
:0A20B9008F488D498B4A8A4B894CF1
:1020C300E4F54DAB4AAA4BA94C854D8275830012AA
:1020D300178CFB6021AD49AF48121CAD740825482D
:1020E300F548D39478748094804007E4F548054913
:0620F3000549054D80CDFA
:0120F90022C4
:041EB600AA07A905C9
:101EBA00E4F54A122194E4FCECC3941074809480F3
:101ECA00501575F030EBA42446F582E5F03408127B
:101EDA002077054A0C80E1AF02E904FD122194E45F
:101EEA00FCECC3941074809480501575F030EBA408
:101EFA00245EF582E5F03408122077054A0C80E169
:011F0A0022B4
:041D9D008F4A8B4C92
:101DA100E4F551F552E54D5407700BE54D1313134E
:101DB100541FF554800AE54D131313541F04F554B1
:101DC1008D54E554C3954D5035AD54AF4A1221940D
:101DD100854A53E553C3954C50200552E552AE5107
:101DE10070020551142550F9E54F3EFEAF01122254
:0E1DF100177D01122088055380D9055480C447
:011DFF0022C1
:1019B700D2927F647E001221CEC2927F647E001293
:1019C70021CED292E4FD7FAE122088E4FF12208858
:1019D7007F101220887F401220887F811220887F05
:1019E700CF1220887FA11220887FC81220887FA667
:1019F7001220887FA81220887F3F1220887FD31269
:101A07002088E4FF1220887FD51220887F8012204B
:101A1700887FD91220887FF11220887FDA122088E8
:101A27007F121220887FDB1220887F401220887F58
:101A3700201220887F021220887F8D1220887F1431
:101A47001220887FA41220887FA61220887FAF12D9
:101A570020887FAF1220881220FAE4FDFF0221942C
:10002E000000000000000000002F0000000007008C
:10003E00070000147F147F1400242A7F2A12006206
:10004E0064081323003649552250000005030000B2
:10005E0000001C224100000041221C000014083E3A
:10006E0008140008083E0808000000A06000000800
:10007E000808080800006060000000201008040254
:10008E00003E5149453E0000427F40000042615112
:10009E004946002141454B31001814127F100027AC
:1000AE0045454539003C4A4949300001710905036F
:1000BE0000364949493600064949291E00003636A0
:1000CE000000000056360000000814224100001403
:1000DE0014141414000041221408000201510906E0
:1000EE0000324959513E007C1211127C007F494961
:1000FE004936003E41414122007F4141221C007F92
:10010E0049494941007F09090901003E4149497A9F
:10011E00007F0808087F0000417F41000020404119
:10012E003F01007F08142241007F40404040007F85
:10013E00020C027F007F0408107F003E4141413EC9
:10014E00007F09090906003E4151215E007F091911
:10015E0029460046494949310001017F0101003F0E
:10016E004040403F001F2040201F003F4038403F8E
:10017E0000631408146300070870080700615149F2
:10018E00454300007F41410000552A552A55000085
:10019E0041417F0000040201020400404040404003
:1001AE00000001020400002054545478007F48449B
:1001BE00443800384444442000384444487F0038D2
:1001CE005454541800087E0901020018A4A4A47CFB
:1001DE00007F080404780000447D400000408084C5
:1001EE007D00007F102844000000417F4000007C0D
:1001FE0004180478007C0804047800384444443819
:10020E0000FC242424180018242418FC007C080464
:10021E00040800485454542000043F444020003C3D
:10022E004040207C001C2040201C003C4030403CC4
:10023E00004428102844001CA0A0A07C0044645454
:10024E004C44141414141414000000000000000098
:10025E000000000000000000000000F80000000098
:10026E00000000333000000000100C06100C0600D9
:10027E00000000000000000040C07840C078400040
:10028E00043F04043F040400007088FC08300000A2
:10029E00001820FF211E0000F008F000E0180000FA
:1002AE0000211C031E211E0000F0088870000000B3
:1002BE001E2123241927211010160E000000000005
:1002CE000000000000000000000000E01804020022
:1002DE00000000071820400000020418E000000093
:1002EE000040201807000000404080F08040400091
:1002FE000202010F01020200000000F000000000E7
:10030E000101011F010101000000000000000000BA
:10031E0080B070000000000000000000000000002F
:10032E0000010101010101010000000000000000B8
:10033E000030300000000000000000008060180453
:10034E00006018060100000000E010080810E00030
:10035E00000F102020100F00001010F800000000F9
:10036E000020203F20200000007008080888700040
:10037E0000302824222130000030088888483000C0
:10038E000018202020110E000000C02010F80000E0
:10039E0000070424243F240000F808888808080079
:1003AE000019212020110E0000E01088881800008E
:1003BE00000F112020110E0000380808C838080060
:1003CE000000003F000000000070880808887000E0
:1003DE00001C222121221C0000E010080810E00061
:1003EE000000312222110F00000000C0C0000000EA
:1003FE00000000303000000000000080000000000F
:10040E000000806000000000000080402010080006
:10041E0000010204081020004040404040404000CF
:10042E0004040404040404000008102040800000AA
:10043E000020100804020100007048080808F000AF
:10044E000000003036010000C030C828E810E0007F
:10045E000718272423140B000000C038E00000000A
:10046E00203C23020227382008F888888870000074
:10047E00203F202020110E00C03008080808380048
:10048E00071820202010080008F808080810E000BF
:10049E00203F202020100F0008F88888E808100060
:1004AE00203F20202320180008F88888E808100034
:1004BE00203F200003000000C0300808083800006C
:1004CE0007182020221E020008F808000008F8086D
:1004DE00203F210101213F20000808F808080000F4
:1004EE000020203F2020000000000808F808080027
:1004FE00C08080807F00000008F888C0281808009F
:10050E00203F20012638200008F8080000000000D7
:10051E00203F20202020300008F8F800F8F80800CE
:10052E00203F003F003F200008F830C00008F808C8
:10053E00203F200007183F00E01008080810E000D8
:10054E000F10202020100F0008F808080808F000EF
:10055E00203F210101010000E01008080810E00012
:10056E000F18242438504F0008F8888888887000A7
:10057E00203F2000030C3020007088080808380047
:10058E000038202121221C00180808F8080818003D
:10059E000000203F2000000008F808000008F808BE
:1005AE00001F202020201F000878880000C838086F
:1005BE00000007380E010000F80800F80008F800E7
:1005CE00033C0700073C0300081868808068180881
:1005DE0020302C03032C30200838C800C8380800FF
:1005EE000000203F2000000010080808C83808004E
:1005FE002038262120201800000000FE02020200F2
:10060E000000007F40404000000C30C000000000A1
:10061E00000000010638C00000020202FE000000C9
:10062E00004040407F00000000000402020204006F
:10063E0000000000000000000000000000000000AC
:10064E008080808080808080000202040000000094
:10065E00000000000000000000008080808000008C
:10066E000019242222223F2008F80080800000007A
:10067E00003F112020110E0000000080808000003D
:10068E00000E112020201100000000808088F8004C
:10069E00000E112020103F2000008080808000007E
:1006AE00001F222222221300008080F088888818E2
:1006BE000020203F202000000000808080808000ED
:1006CE00006B94949493600008F800808080000082
:1006DE00203F210000203F2000809898000000005D
:1006EE000020203F2020000000000080989800008D
:1006FE0000C08080807F000008F8000080808000AD
:10070E00203F24022D302000000808F800000000D1
:10071E000020203F2020000080808080808080008C
:10072E00203F20003F20003F80800080808000001E
:10073E00203F210000203F200000808080800000AC
:10074E00001F202020201F008080008080000000DD
:10075E0080FFA12020110E0000000080808080000C
:10076E00000E112020A0FF808080800080808000FD
:10077E0020203F212000010000008080808080002A
:10078E000033242424241900008080E0808000009F
:10079E000000001F202000008080000000808000EC
:1007AE00001F202020103F2080808000008080804D
:1007BE0000010E30080601008080008000808080DD
:1007CE000F300C030C300F00008080008080800002
:1007DE000020312E0E31200080808000008080802D
:1007EE0080818E70180601000080808080808000DD
:1007FE000021302C2221300000000000807C0202FB
:10080E0000000000003F404000000000FF0000001C
:10081E0000000000FF0000000002027C80000000CB
:10082E000040403F000000000006010102020404E7
:10083E00000000000000000000FE02FC885452522E
:10084E00525488000000000000000000000000006C
:10085E000007040707080808080807000000000042
:10086E00000000000000000000FCFC00282C983E58
:10087E001C2A08000000000000000000000000001C
:10088E0000070708080B0405070908000000000010
:10089E00000000000000000004FC06C43C4242526E
:1008AE00EA4640400000000000000000000000008A
:1008BE0000040303040808080403000000000000FD
:1008CE0000000000000000001022A4F454ACB4F2AA
:1008DE00AC34F0000000000000000000000000003A
:1008EE0000060107000304040308070000000000CF
:1008FE0000000000000000002010204040200000FA
:10090E0000000000000000000000000000000000D9
:10091E0000000000000000000000000000000000C9
:10092E000000000000000000CF31110A04244282B2
:10093E00820204040A1131CF000000000000000002
:10094E00738C8850383422212120303050888C739B
:08095E00000000000000000091
:0E22C20081838587898B8D80828486888A8CB3
:091C910007550030211301012068
:04213300AB07AA0646
:102137007C007D0A1217CB8F828E83AE02AF037CA1
:10214700007D0A1217CB758300E582C4F8540FC8C7
:1021570068F582E583C454F048F583ED4282AF8287
:012167002255
:02220000AD0728
:10220200EDC4540F75F00AA4FFED540F7C002FFFAC
:04221200EC35F0FEB9
:0122160022A5
:101FEE00C2B500C2B600D2B500E4FEEEC3940874CA
:101FFE008094805011EF1392B4EFC313FFD2B6004A
:10200E00C2B6000E80E5E4FEEEC3940874809480A0
:10201E005011ED1392B4EDC313FDD2B600C2B6004B
:06202E000E80E5C2B500C2
:012034002289
:101E0000C2B500C2B600D2B500E4FDEDC3940874BB
:101E10008094805011EF1392B4EFC313FFD2B60039
:101E2000C2B6000D80E500E4FDEDC3940874809413
:101E300080501AA2B4E433FFC43333335480FCEE31
:101E4000C3134CFED2B600C2B6000D80DCC2B50092
:0B1E5000D2B600C2B400D2B400AF064E
:011E5B002264
:101E5C000540E5407002053FE4F9E9C3940774803E
:101E6C0094805017E925E02435F8E6FE08E6FF12C9
:101E7C002133745529F8A6070980DFE4FD7F8E1203
:101E8C001FEEE4F9E9C39407748094805012E99032
:101E9C0022C993FF745529F8E6FD121FEE0980E460
:0A1EAC007D807F8E121FEE021F5B87
:101F5B00E4FBEBC39407748094805012EB9022C285
:101F6B0093FF121E0074552BF8A6070B80E4E4FBBD
:101F7B00EBC3940774809480501774552BF8E6FFCD
:101F8B00122200EB25E02435F8A60608A6070B80E5
:091F9B00DFE54015407002153F1E
:011FA400221A
:10224300E4FD7F8E121FEEE4FD7F90121FEE7D8072
:052253007F8E021FEE6A
:0D000E00E4F5E7F5E5F5E675E380F5E4229D
:1022170075E78175E5018FE48EE375E64675E6B9E6
:0622270000AFE202000E10
:10222D0075E78175E5028FE48EE38DE275E64675FF
:06223D00E6B90002000EEC
:1022580075E78175E5038FE48EE375E64675E6B9A3
:042268000002000E62
:0D001E000110FF0110FFFF0110FF01100095
:101C9A00011900021D0000011700011800031AFFB4
:021CAA00001E1A
:10226C00E4F5C875CDFC75CBFC75CC6675CA66D229
:04227C00ADD2AF220E
:03002B0002183682
:10183600C0E0C0F0C083C082C0D075D000C000C078
:1018460001C002C003C007C2CF0519AB1AAA1BA963
:101856001C121773605CF47017051EE51E700205F6
:101866001D6432451D706DF51DF51EF51904803792
:101876000517E51975F00A84E5F070020518900061
:101886000112178CFFE518D39F5011121773FFE54D
:1018960017C39F403F751700B283803875180075CF
:1018A60017007519007402251CF51CE4351BF51B81
:1018B6008022051EE51E7002051DB4E817E51DB45D
:1018C6000312751D00751E00751900751AFF751B2C
:1018D60000751C1EE519641E7002F519D007D003A9
:1018E600D002D001D000D0D0D082D083D0F0D0E0CA
:0118F60032BF
:03000000021BA040
:0C1BA000787FE4F6D8FD75815F021BE73A
:10177300BB010689828A83E0225002E722BBFE0274
:09178300E32289828A83E49322A7
:10178C00BB010CE58229F582E5833AF583E0225012
:10179C0006E92582F8E622BBFE06E92582F8E2225C
:0D17AC00E58229F582E5833AF583E4932276
:1017B900EF8DF0A4A8F0CF8CF0A428CE8DF0A42E44
:0217C900FE22FE
:1017CB00BC000BBE0029EF8DF084FFADF022E4CC02
:1017DB00F875F008EF2FFFEE33FEEC33FCEE9DECCB
:1017EB00984005FCEE9DFE0FD5F0E9E4CEFD22ED11
:1017FB00F8F5F0EE8420D21CFEADF075F008EF2F5B
:10180B00FFED33FD4007985006D5F0F222C398FD4B
:05181B000FD5F0EA22E8
:10182000EB9FF5F0EA9E42F0E99D42F0EC6480C83F
:0618300064809845F022DF
:101BAC00021686E493A3F8E493A34003F68001F2B3
:101BBC0008DFF48029E493A3F85407240CC8C3333A
:101BCC00C4540F4420C8834004F456800146F6DF09
:101BDC00E4800B0102040810204080901C2CE47E51
:101BEC00019360BCA3FF543F30E509541FFEE493FE
:101BFC00A360010ECF54C025E060A840B8E493A3C5
:101C0C00FAE493A3F8E493A3C8C582C8CAC583CAEF
:101C1C00F0A3C8C582C8CAC583CADFE9DEE780BEA7
:011CAC000037
:00000001FF
